:020000021000EC
:10E000000C944CF00C946BF00C946BF00C946BF043
:10E010000C946BF00C946BF00C946BF00C946BF014
:10E020000C946BF00C946BF00C949DF10C946BF0D1
:10E030000C946BF00C946BF00C946BF00C946BF0F4
:10E040000C946BF00C946BF00C946BF00C946BF0E4
:10E050000C946BF00C946BF00C946BF00C946BF0D4
:10E060000C946BF00C946BF00C946BF00C946BF0C4
:10E070000C946BF00C946BF00C946BF00C946BF0B4
:10E080000C946BF00C946BF00C946BF00C946BF0A4
:10E090000C946BF00C946BF011241FBECFEFD0E208
:10E0A000DEBFCDBF11E0A0E0B1E0E0E9FDEE01E0B0
:10E0B0000BBF02C007900D92A23CB107D9F715E043
:10E0C000A2ECB1E001C01D92A13DB107E1F70E94B1
:10E0D0009AF50C94C6F60C9400F02091CF0530917F
:10E0E000D0052617370748F06115710539F42091DE
:10E0F000E8002E772093E80001C0B901FC0120E080
:10E100006115710591F18EB38823D1F18530D1F17C
:10E110008091E80083FD32C08091E80082FF06C054
:10E120008091E80082FF24C080E008958091E8009B
:10E1300080FFE6CF8091F2009091F30061157105A8
:10E1400051F08830910538F421912093F10061500D
:10E1500071090196F3CF21E0089709F020E0809142
:10E16000E8008E778093E800CBCF2111CCCFD8CFB9
:10E170008EB3882329F0853099F604C081E0089594
:10E1800082E0089583E008958093E900EBEEF0E0EB
:10E19000808181608083EDEEF0E010826093EC007E
:10E1A00040838091EE00881F8827881F0895809102
:10E1B000C90587FD05C08091E80080FF0DC010C033
:10E1C0008091E80082FD04C08EB38111F9CF0895DB
:10E1D0008091E8008B7707C08EB38111ECCF089552
:10E1E0008091E8008E778093E80008958091E400A4
:10E1F0009091E50045E62091EC0020FF20C02091A1
:10E20000E80020FD20C02EB3222389F0253089F0BC
:10E210002091EB0025FD0FC02091E4003091E50036
:10E220002817390741F3415041F0C901E4CF82E09A
:10E23000089583E0089581E0089584E00895209191
:10E24000E80022FFE0CF80E008950E9490F10E9454
:10E2500098F1E0EEF0E0808181608083E8EDF0E00D
:10E2600080818F77808319BCA7EDB0E08C918E7F81
:10E270008C9380818F7E80831092C80508950F93C0
:10E280001F93CF93DF930E9490F10E9498F1C8ED05
:10E29000D0E088818F7788838881806888838881AF
:10E2A0008F7D8883E7EDF0E080818068808319BCF2
:10E2B0001EBA1092C5051092C7051092C60500EE51
:10E2C00010E0F80180818B7F808388818160888362
:10E2D00042E060E080E00E94C4F0E1EEF0E0808186
:10E2E0008E7F8083E2EEF0E0808181608083808198
:10E2F00088608083F80180818E7F8083888180613F
:10E300008883DF91CF911F910F910895E7EDF0E0A1
:10E3100080818160808381E08093C8050C943FF107
:10E32000E8EDF0E080818C7F80831092E200089518
:10E330001092DA001092E10008951F920F920FB62A
:10E340000F9211240BB60F922F933F934F935F932D
:10E350006F937F938F939F93AF93BF93EF93FF93AD
:10E360008091E10082FF0BC08091E20082FF07C034
:10E370008091E1008B7F8093E1000E94BFF3809148
:10E38000DA0080FF1DC08091D80080FF19C0809105
:10E39000DA008E7F8093DA008091D90080FF0CC074
:10E3A00084E189BD86E189BD09B400FEFDCF81E02D
:10E3B0008EBB0E94BFF304C019BC1EBA0E94BFF3FB
:10E3C0008091E10080FF18C08091E20080FF14C0BE
:10E3D0008091E2008E7F8093E2008091E200806174
:10E3E0008093E2008091D80080628093D80019BCAD
:10E3F00085E08EBB0E94BFF38091E10084FF2DC0B9
:10E400008091E20084FF29C084E189BD86E189BD55
:10E4100009B400FEFDCF8091D8008F7D8093D80095
:10E420008091E1008F7E8093E1008091E2008F7EF9
:10E430008093E2008091E20081608093E20080910D
:10E44000C505811104C08091E30087FF02C084E00C
:10E4500001C081E08EBB0E94BFF38091E10083FF89
:10E4600023C08091E20083FF1FC08091E100877F7D
:10E470008093E10082E08EBB1092C5058091E1009F
:10E480008E7F8093E1008091E2008E7F8093E20096
:10E490008091E20080618093E20042E060E080E0F1
:10E4A0000E94C4F00E94BFF3FF91EF91BF91AF9122
:10E4B0009F918F917F916F915F914F913F912F919C
:10E4C0000F900BBE0F900FBE0F901F9018950F93DB
:10E4D0001F93CF93DF93CDB7DEB7AA970FB6F8940B
:10E4E000DEBF0FBECDBFE9ECF5E08091F100819376
:10E4F00025E0E13DF207C9F70E94C2F68091E800ED
:10E5000083FF24C19091C9058091CA05853009F423
:10E5100077C030F4813081F168F0833069F116C141
:10E52000883009F4E3C0893009F4F3C0863009F07B
:10E530000DC189C0903881F0923809F007C18091EF
:10E54000CD058F708093E9008091EB0085FB8827D3
:10E5500080F91092E90006C08091C6059091C70528
:10E56000911182609091E800977F9093E8008093EA
:10E57000F1001092F100C5C0292F2D7F09F0E6C0EF
:10E58000992319F0923061F0E1C09091CB05913060
:10E5900009F0DCC0833009F090E09093C7052AC0F1
:10E5A0009091CB05911126C02091CD052F7009F4D3
:10E5B000CDC02093E9009091EB0090FF1BC0833009
:10E5C00021F48091EB00806213C08091EB008061A8
:10E5D0008093EB0081E090E0022E01C0880F0A9446
:10E5E000EAF78093EA001092EA008091EB008860DD
:10E5F0008093EB001092E9008091E800877F84C04F
:10E600009111A4C01091CB051F770FB7F89480919A
:10E61000E800877F8093E8000E94D7F08091E800AF
:10E6200080FFFCCF8091E3008078812B8093E30012
:10E6300080688093E300112311F083E001C082E041
:10E640008EBB0FBF83C09058923008F07FC080917E
:10E65000CB059091CC058C3D23E0920769F583E0D2
:10E660008A838AE289834FB7F894DE01139620E00B
:10E670003EE051E2E32FF0E050935700E49120FF99
:10E6800003C0E295EF703F5FEF708E2F90E0EA30AD
:10E6900010F0C79601C0C0968D939D932F5F2431D3
:10E6A00049F74FBF8091E800877F8093E8006AE2D6
:10E6B00070E0CE01019612C0AE014F5F5F4F6091D6
:10E6C000CD050E9467F5009709F440C02091E8004D
:10E6D000277F2093E800BC0189819A810E946DF018
:10E6E0008091E8008B778093E80030C0903871F516
:10E6F0008091E800877F8093E8008091C505809332
:10E70000F1008091E8008E778093E8000E94D7F0B6
:10E710001DC091111BC09091CB059230B8F480912F
:10E72000E800877F8093E8009093C5050E94D7F0AA
:10E730008091C505811104C08091E30087FF02C06C
:10E7400084E001C081E08EBB0E94BEF68091E800AB
:10E7500083FF0AC08091EB0080628093EB00809180
:10E76000E800877F8093E800AA960FB6F894DEBF92
:10E770000FBECDBFDF91CF911F910F9108950895E6
:10E78000CF938EB3882361F0C091E900CF701092CF
:10E79000E9008091E80083FD0E9467F2C093E900E0
:10E7A000CF9108951F93CF93DF93EC01FC013D9629
:10E7B0008BE0DF011D928A95E9F711E0898118133A
:10E7C00005C02A813B814C8180E807C08D811813E8
:10E7D00006C02E813F81488580E092E00DC089858A
:10E7E000181729F01F5F173049F781E026C02A85E6
:10E7F0003B854C8580E893E0442311F044E001C060
:10E8000040E0E8E0F0E050E0E217F30720F45F5F5B
:10E81000EE0FFF1FF9CF42605295507F452BB0E4B9
:10E820009B9F9001112461E0811101C060E0622B87
:10E83000812F0E94C4F08111D5CFDF91CF911F911C
:10E840000895CF93C62F2EB32430F1F4FC014189F3
:10E85000528963897489452B462B472BA9F0818106
:10E860008093E9008091E80085FF04C0C093F10027
:10E8700080E00BC08091E8008E778093E8000E94D2
:10E88000F6F0882399F301C082E0CF9108952EB36A
:10E89000243031F5FC014189528963897489452B03
:10E8A000462B472BE9F081818093E9008091F200AB
:10E8B0009091F300892B91F09091E8008091E8000D
:10E8C0008E778093E80095FD09C00E94F6F08111D3
:10E8D00008C08091E8008E778093E80080E008957A
:10E8E00082E008952EB3243059F4FC014189528905
:10E8F00063897489452B462B472B11F00C9447F400
:10E9000008952EB3243019F08FEF9FEF0895FC0186
:10E910004189528963897489452B462B472BA1F382
:10E9200085818093E9008091E80082FFEDCF80919E
:10E93000F2009091F300892B21F02091F10030E05A
:10E9400002C02FEF3FEF8091F2009091F300892BEE
:10E9500029F48091E8008B778093E800C90108953D
:10E960000895CF93DF93EC018091E80083FFACC062
:10E97000888190E02091CD053091CE052817390788
:10E9800009F0A2C08091CA05813261F020F4803282
:10E9900009F43FC099C0823209F46EC0833209F491
:10E9A00081C092C08091C905813A09F08DC08091E3
:10E9B000E800877F8093E8008091E80080FFFCCF2B
:10E9C00049895A896B897C894093F100BB27A72F1D
:10E9D000962F852F8093F100CB01AA27BB27809328
:10E9E000F100472F5527662777274093F1008D893F
:10E9F0008093F1008E898093F1008F898093F100DC
:10EA00008091E8008E778093E800DF91CF910C949D
:10EA1000D7F08091C905813209F056C08091E80095
:10EA2000877F8093E8008091E80082FD04C08EB368
:10EA30008111F9CF49C03091F1002091F1009091FE
:10EA4000F1008091F100398B2A8B9B8B8C8B80910C
:10EA5000F1008D8B8091F1008E8B8091F1008F8B76
:10EA60008091E8008B778093E8000E94D7F0CE0178
:10EA7000DF91CF910C94B0F48091C905813221F5DA
:10EA80008091E800877F8093E8000E94D7F0809112
:10EA9000CB059091CC059E878D87CE01DF91CF91DC
:10EAA0000C94B0F48091C905813271F48091E80032
:10EAB000877F8093E8000E94D7F06091CB05CE015C
:10EAC000DF91CF910C94B0F4DF91CF910895292F6D
:10EAD00033272230310559F02330310569F02130D8
:10EAE0003105D9F482E190E02FEA31E01AC08EE3DB
:10EAF00090E021E731E015C099278330910568F453
:10EB0000FC01EE0FFF1FE35EFE4F20813181FC010F
:10EB1000E65EFE4F808190E004C080E090E020E05F
:10EB200030E0FA01318320830895682F80E091E07E
:10EB30000C9421F4F89485B7982F916095BF82606A
:10EB400085BF579A5F980E9486F17894CFEFDFEFE8
:10EB500001E18EB3843009F00AC180E091E00E94A7
:10EB600081F497FD04C12091C405222321F02130B6
:10EB700009F442C0FCC0883009F460C038F4873022
:10EB800009F05EC080E00E9495F558C0893079F0A8
:10EB90008A3009F055C011E01093C4051092C305E6
:10EBA0001092C205D0931901C093180140C080E0B3
:10EBB0000E9495F580E091E00E9447F41FEF23ED5D
:10EBC00030E3115020403040E1F700C000000E94C7
:10EBD00025F1F89485B7982F916095BF8D7F85BFFB
:10EBE0005FEF87EA91E6515080409040E1F700C026
:10EBF00000000C940000BBC0209118013091190155
:10EC00002F3F5FEF350711F58130B9F028F08230E2
:10EC100009F0ADC05F9814C010921901109218014C
:10EC20008091C2059091C3058837910510F480E06A
:10EC300001C081E00E9495F59AC05F9880E001C014
:10EC400082E00E9495F51092C40591C0A9014F5F22
:10EC50005F4F5093190140931801F901EE53FE4F95
:10EC60008083411554400CF482C090E899B9F8941F
:10EC70008090C2059090C305A12CB12C8AE0880C2D
:10EC8000991CAA1CBB1C8A95D1F780E090E0DC019E
:10EC90009C012E533E4F19016C017D01C80CD91CFB
:10ECA000EA1CFB1C07B600FCFDCFF999FECF33E050
:10ECB000F601E0925B0030935700E89540E050E0A9
:10ECC000BA01F101E40FF51F218130E0322F222734
:10ECD000E0812E2B07B600FCFDCFF999FECF2A016B
:10ECE0003B014C0C5D1C6E1C7F1C11E00901F20104
:10ECF00060925B0010935700E89511244E5F5F4FC0
:10ED00006F4F7F4F411521E0520761057105C9F62C
:10ED100007B600FCFDCFF999FECF35E0F601E09291
:10ED20005B0030935700E8959F5FAF4FBF4F811551
:10ED300054E09507A105B10509F0AACF07B600FC7C
:10ED4000FDCFF999FECF00935700E895789480E0C5
:10ED50000E9495F58091C2059091C305019690930C
:10ED6000C3058093C205D0931901C093180180E0B8
:10ED700091E00E9472F40E94C0F3EBCE80E091E03B
:10ED80000C94D2F380E091E00C94B1F4F894FFCFAE
:10ED900000034000010440000102080000000000E0
:10EDA0000000000000000000FFFF0416306D015558
:10EDB00001230130034D0061006300200052004F29
:10EDC000004D002000530049004D004D0020005030
:10EDD0000072006F006700720061006D006D0065D9
:10EDE0000072000000160344006F007500670020E9
:10EDF00000420072006F0077006E000000040309FB
:10EE00000409023E00020100C0FA090400000102E8
:10EE10000201000524001001042402060524060056
:10EE200001070582030800FF09040100020A00002F
:10EE3000000705040240000107058302400001129B
:10EE400001100102000008D016AA0601000102DC30
:02EE50000100BF
:040000031000E00009
:00000001FF
